{
  "_format": "hh-sol-artifact-1",
  "contractName": "DataStorage",
  "sourceName": "contracts/TimeCapsule.sol",
  "abi": [
    {
      "inputs": [
        {
          "internalType": "string",
          "name": "_email",
          "type": "string"
        },
        {
          "internalType": "string",
          "name": "_hash",
          "type": "string"
        },
        {
          "internalType": "uint256",
          "name": "_deliveryDate",
          "type": "uint256"
        }
      ],
      "stateMutability": "nonpayable",
      "type": "constructor"
    },
    {
      "anonymous": false,
      "inputs": [
        {
          "indexed": false,
          "internalType": "uint256",
          "name": "timestamp",
          "type": "uint256"
        }
      ],
      "name": "DataStored",
      "type": "event"
    },
    {
      "inputs": [],
      "name": "getData",
      "outputs": [
        {
          "internalType": "string",
          "name": "",
          "type": "string"
        },
        {
          "internalType": "string",
          "name": "",
          "type": "string"
        },
        {
          "internalType": "uint256",
          "name": "",
          "type": "uint256"
        }
      ],
      "stateMutability": "view",
      "type": "function"
    }
  ],
  "bytecode": "0x60806040523480156200001157600080fd5b5060405162000a8138038062000a818339818101604052810190620000379190620002bb565b6040518060600160405280848152602001838152602001828152506000808201518160000190816200006a919062000596565b50602082015181600101908162000082919062000596565b50604082015181600201559050506001600360006101000a81548160ff0219169083151502179055507f9455957c3b77d1d4ed071e2b469dd77e37fc5dfd3b4d44dc8a997cc97c7b3d4942604051620000dc91906200068e565b60405180910390a1505050620006ab565b6000604051905090565b600080fd5b600080fd5b600080fd5b600080fd5b6000601f19601f8301169050919050565b7f4e487b7100000000000000000000000000000000000000000000000000000000600052604160045260246000fd5b62000156826200010b565b810181811067ffffffffffffffff821117156200017857620001776200011c565b5b80604052505050565b60006200018d620000ed565b90506200019b82826200014b565b919050565b600067ffffffffffffffff821115620001be57620001bd6200011c565b5b620001c9826200010b565b9050602081019050919050565b60005b83811015620001f6578082015181840152602081019050620001d9565b60008484015250505050565b6000620002196200021384620001a0565b62000181565b90508281526020810184848401111562000238576200023762000106565b5b62000245848285620001d6565b509392505050565b600082601f83011262000265576200026462000101565b5b81516200027784826020860162000202565b91505092915050565b6000819050919050565b620002958162000280565b8114620002a157600080fd5b50565b600081519050620002b5816200028a565b92915050565b600080600060608486031215620002d757620002d6620000f7565b5b600084015167ffffffffffffffff811115620002f857620002f7620000fc565b5b62000306868287016200024d565b935050602084015167ffffffffffffffff8111156200032a5762000329620000fc565b5b62000338868287016200024d565b92505060406200034b86828701620002a4565b9150509250925092565b600081519050919050565b7f4e487b7100000000000000000000000000000000000000000000000000000000600052602260045260246000fd5b60006002820490506001821680620003a857607f821691505b602082108103620003be57620003bd62000360565b5b50919050565b60008190508160005260206000209050919050565b60006020601f8301049050919050565b600082821b905092915050565b600060088302620004287fffffffffffffffffffffffffffffffffffffffffffffffffffffffffffffffff82620003e9565b620004348683620003e9565b95508019841693508086168417925050509392505050565b6000819050919050565b600062000477620004716200046b8462000280565b6200044c565b62000280565b9050919050565b6000819050919050565b620004938362000456565b620004ab620004a2826200047e565b848454620003f6565b825550505050565b600090565b620004c2620004b3565b620004cf81848462000488565b505050565b5b81811015620004f757620004eb600082620004b8565b600181019050620004d5565b5050565b601f82111562000546576200051081620003c4565b6200051b84620003d9565b810160208510156200052b578190505b620005436200053a85620003d9565b830182620004d4565b50505b505050565b600082821c905092915050565b60006200056b600019846008026200054b565b1980831691505092915050565b600062000586838362000558565b9150826002028217905092915050565b620005a18262000355565b67ffffffffffffffff811115620005bd57620005bc6200011c565b5b620005c982546200038f565b620005d6828285620004fb565b600060209050601f8311600181146200060e5760008415620005f9578287015190505b62000605858262000578565b86555062000675565b601f1984166200061e86620003c4565b60005b82811015620006485784890151825560018201915060208501945060208101905062000621565b8683101562000668578489015162000664601f89168262000558565b8355505b6001600288020188555050505b505050505050565b620006888162000280565b82525050565b6000602082019050620006a560008301846200067d565b92915050565b6103c680620006bb6000396000f3fe608060405234801561001057600080fd5b506004361061002b5760003560e01c80633bc5de3014610030575b600080fd5b610038610050565b6040516100479392919061027f565b60405180910390f35b6060806000600360009054906101000a900460ff166100a4576040517f08c379a000000000000000000000000000000000000000000000000000000000815260040161009b90610310565b60405180910390fd5b6000800160006001016000600201548280546100bf9061035f565b80601f01602080910402602001604051908101604052809291908181526020018280546100eb9061035f565b80156101385780601f1061010d57610100808354040283529160200191610138565b820191906000526020600020905b81548152906001019060200180831161011b57829003601f168201915b5050505050925081805461014b9061035f565b80601f01602080910402602001604051908101604052809291908181526020018280546101779061035f565b80156101c45780601f10610199576101008083540402835291602001916101c4565b820191906000526020600020905b8154815290600101906020018083116101a757829003601f168201915b50505050509150925092509250909192565b600081519050919050565b600082825260208201905092915050565b60005b838110156102105780820151818401526020810190506101f5565b60008484015250505050565b6000601f19601f8301169050919050565b6000610238826101d6565b61024281856101e1565b93506102528185602086016101f2565b61025b8161021c565b840191505092915050565b6000819050919050565b61027981610266565b82525050565b60006060820190508181036000830152610299818661022d565b905081810360208301526102ad818561022d565b90506102bc6040830184610270565b949350505050565b7f44617461206e6f7420696e697469616c697a6564000000000000000000000000600082015250565b60006102fa6014836101e1565b9150610305826102c4565b602082019050919050565b60006020820190508181036000830152610329816102ed565b9050919050565b7f4e487b7100000000000000000000000000000000000000000000000000000000600052602260045260246000fd5b6000600282049050600182168061037757607f821691505b60208210810361038a57610389610330565b5b5091905056fea2646970667358221220d8ecfea0b8bec6c3dfccc4a1bd32a0515534f1d1009cdaed8394e59f32febf4764736f6c63430008180033",
  "linkReferences": {},
  "deployedLinkReferences": {}
}