{
  "_format": "hh-sol-artifact-1",
  "contractName": "DataStorage",
  "sourceName": "contracts/TimeCapsule.sol",
  "abi": [
    {
      "inputs": [
        {
          "internalType": "string",
          "name": "_email",
          "type": "string"
        },
        {
          "internalType": "string",
          "name": "_hash",
          "type": "string"
        },
        {
          "internalType": "string",
          "name": "_deliveryDate",
          "type": "string"
        }
      ],
      "stateMutability": "nonpayable",
      "type": "constructor"
    },
    {
      "inputs": [],
      "name": "getData",
      "outputs": [
        {
          "internalType": "string",
          "name": "",
          "type": "string"
        },
        {
          "internalType": "string",
          "name": "",
          "type": "string"
        },
        {
          "internalType": "string",
          "name": "",
          "type": "string"
        }
      ],
      "stateMutability": "view",
      "type": "function"
    }
  ],
  "bytecode": "0x60806040523480156200001157600080fd5b5060405162000a8f38038062000a8f833981810160405281019062000037919062000255565b6040518060600160405280848152602001838152602001828152506000808201518160000190816200006a919062000559565b50602082015181600101908162000082919062000559565b5060408201518160020190816200009a919062000559565b509050506001600360006101000a81548160ff02191690831515021790555050505062000640565b6000604051905090565b600080fd5b600080fd5b600080fd5b600080fd5b6000601f19601f8301169050919050565b7f4e487b7100000000000000000000000000000000000000000000000000000000600052604160045260246000fd5b6200012b82620000e0565b810181811067ffffffffffffffff821117156200014d576200014c620000f1565b5b80604052505050565b600062000162620000c2565b905062000170828262000120565b919050565b600067ffffffffffffffff821115620001935762000192620000f1565b5b6200019e82620000e0565b9050602081019050919050565b60005b83811015620001cb578082015181840152602081019050620001ae565b60008484015250505050565b6000620001ee620001e88462000175565b62000156565b9050828152602081018484840111156200020d576200020c620000db565b5b6200021a848285620001ab565b509392505050565b600082601f8301126200023a5762000239620000d6565b5b81516200024c848260208601620001d7565b91505092915050565b600080600060608486031215620002715762000270620000cc565b5b600084015167ffffffffffffffff811115620002925762000291620000d1565b5b620002a08682870162000222565b935050602084015167ffffffffffffffff811115620002c457620002c3620000d1565b5b620002d28682870162000222565b925050604084015167ffffffffffffffff811115620002f657620002f5620000d1565b5b620003048682870162000222565b9150509250925092565b600081519050919050565b7f4e487b7100000000000000000000000000000000000000000000000000000000600052602260045260246000fd5b600060028204905060018216806200036157607f821691505b60208210810362000377576200037662000319565b5b50919050565b60008190508160005260206000209050919050565b60006020601f8301049050919050565b600082821b905092915050565b600060088302620003e17fffffffffffffffffffffffffffffffffffffffffffffffffffffffffffffffff82620003a2565b620003ed8683620003a2565b95508019841693508086168417925050509392505050565b6000819050919050565b6000819050919050565b60006200043a620004346200042e8462000405565b6200040f565b62000405565b9050919050565b6000819050919050565b620004568362000419565b6200046e620004658262000441565b848454620003af565b825550505050565b600090565b6200048562000476565b620004928184846200044b565b505050565b5b81811015620004ba57620004ae6000826200047b565b60018101905062000498565b5050565b601f8211156200050957620004d3816200037d565b620004de8462000392565b81016020851015620004ee578190505b62000506620004fd8562000392565b83018262000497565b50505b505050565b600082821c905092915050565b60006200052e600019846008026200050e565b1980831691505092915050565b60006200054983836200051b565b9150826002028217905092915050565b62000564826200030e565b67ffffffffffffffff81111562000580576200057f620000f1565b5b6200058c825462000348565b62000599828285620004be565b600060209050601f831160018114620005d15760008415620005bc578287015190505b620005c885826200053b565b86555062000638565b601f198416620005e1866200037d565b60005b828110156200060b57848901518255600182019150602085019450602081019050620005e4565b868310156200062b578489015162000627601f8916826200051b565b8355505b6001600288020188555050505b505050505050565b61043f80620006506000396000f3fe608060405234801561001057600080fd5b506004361061002b5760003560e01c80633bc5de3014610030575b600080fd5b610038610050565b604051610047939291906102f1565b60405180910390f35b6060806060600360009054906101000a900460ff166100a4576040517f08c379a000000000000000000000000000000000000000000000000000000000815260040161009b90610389565b60405180910390fd5b60008001600060010160006002018280546100be906103d8565b80601f01602080910402602001604051908101604052809291908181526020018280546100ea906103d8565b80156101375780601f1061010c57610100808354040283529160200191610137565b820191906000526020600020905b81548152906001019060200180831161011a57829003601f168201915b5050505050925081805461014a906103d8565b80601f0160208091040260200160405190810160405280929190818152602001828054610176906103d8565b80156101c35780601f10610198576101008083540402835291602001916101c3565b820191906000526020600020905b8154815290600101906020018083116101a657829003601f168201915b505050505091508080546101d6906103d8565b80601f0160208091040260200160405190810160405280929190818152602001828054610202906103d8565b801561024f5780601f106102245761010080835404028352916020019161024f565b820191906000526020600020905b81548152906001019060200180831161023257829003601f168201915b50505050509050925092509250909192565b600081519050919050565b600082825260208201905092915050565b60005b8381101561029b578082015181840152602081019050610280565b60008484015250505050565b6000601f19601f8301169050919050565b60006102c382610261565b6102cd818561026c565b93506102dd81856020860161027d565b6102e6816102a7565b840191505092915050565b6000606082019050818103600083015261030b81866102b8565b9050818103602083015261031f81856102b8565b9050818103604083015261033381846102b8565b9050949350505050565b7f44617461206e6f7420696e697469616c697a6564000000000000000000000000600082015250565b600061037360148361026c565b915061037e8261033d565b602082019050919050565b600060208201905081810360008301526103a281610366565b9050919050565b7f4e487b7100000000000000000000000000000000000000000000000000000000600052602260045260246000fd5b600060028204905060018216806103f057607f821691505b602082108103610403576104026103a9565b5b5091905056fea2646970667358221220c2206539d7ed66b8cbe33313b81ab5091fe73a11966d94c68d4af14b6e05e6a664736f6c63430008180033",
  "linkReferences": {},
  "deployedLinkReferences": {}
}