{"contracts/TimeCapsule.sol":{"DataStorage":{"abi":[{"inputs":[{"internalType":"string","name":"_email","type":"string"},{"internalType":"string","name":"_hash","type":"string"},{"internalType":"uint256","name":"_deliveryDate","type":"uint256"}],"stateMutability":"nonpayable","type":"constructor"},{"anonymous":false,"inputs":[{"indexed":false,"internalType":"uint256","name":"timestamp","type":"uint256"}],"name":"DataStored","type":"event"},{"inputs":[],"name":"getData","outputs":[{"internalType":"string","name":"","type":"string"},{"internalType":"string","name":"","type":"string"},{"internalType":"uint256","name":"","type":"uint256"}],"stateMutability":"view","type":"function"}],"evm":{"bytecode":{"linkReferences":{},"object":"60806040523480156200001157600080fd5b5060405162000a8138038062000a818339818101604052810190620000379190620002bb565b6040518060600160405280848152602001838152602001828152506000808201518160000190816200006a919062000596565b50602082015181600101908162000082919062000596565b50604082015181600201559050506001600360006101000a81548160ff0219169083151502179055507f9455957c3b77d1d4ed071e2b469dd77e37fc5dfd3b4d44dc8a997cc97c7b3d4942604051620000dc91906200068e565b60405180910390a1505050620006ab565b6000604051905090565b600080fd5b600080fd5b600080fd5b600080fd5b6000601f19601f8301169050919050565b7f4e487b7100000000000000000000000000000000000000000000000000000000600052604160045260246000fd5b62000156826200010b565b810181811067ffffffffffffffff821117156200017857620001776200011c565b5b80604052505050565b60006200018d620000ed565b90506200019b82826200014b565b919050565b600067ffffffffffffffff821115620001be57620001bd6200011c565b5b620001c9826200010b565b9050602081019050919050565b60005b83811015620001f6578082015181840152602081019050620001d9565b60008484015250505050565b6000620002196200021384620001a0565b62000181565b90508281526020810184848401111562000238576200023762000106565b5b62000245848285620001d6565b509392505050565b600082601f83011262000265576200026462000101565b5b81516200027784826020860162000202565b91505092915050565b6000819050919050565b620002958162000280565b8114620002a157600080fd5b50565b600081519050620002b5816200028a565b92915050565b600080600060608486031215620002d757620002d6620000f7565b5b600084015167ffffffffffffffff811115620002f857620002f7620000fc565b5b62000306868287016200024d565b935050602084015167ffffffffffffffff8111156200032a5762000329620000fc565b5b62000338868287016200024d565b92505060406200034b86828701620002a4565b9150509250925092565b600081519050919050565b7f4e487b7100000000000000000000000000000000000000000000000000000000600052602260045260246000fd5b60006002820490506001821680620003a857607f821691505b602082108103620003be57620003bd62000360565b5b50919050565b60008190508160005260206000209050919050565b60006020601f8301049050919050565b600082821b905092915050565b600060088302620004287fffffffffffffffffffffffffffffffffffffffffffffffffffffffffffffffff82620003e9565b620004348683620003e9565b95508019841693508086168417925050509392505050565b6000819050919050565b600062000477620004716200046b8462000280565b6200044c565b62000280565b9050919050565b6000819050919050565b620004938362000456565b620004ab620004a2826200047e565b848454620003f6565b825550505050565b600090565b620004c2620004b3565b620004cf81848462000488565b505050565b5b81811015620004f757620004eb600082620004b8565b600181019050620004d5565b5050565b601f82111562000546576200051081620003c4565b6200051b84620003d9565b810160208510156200052b578190505b620005436200053a85620003d9565b830182620004d4565b50505b505050565b600082821c905092915050565b60006200056b600019846008026200054b565b1980831691505092915050565b600062000586838362000558565b9150826002028217905092915050565b620005a18262000355565b67ffffffffffffffff811115620005bd57620005bc6200011c565b5b620005c982546200038f565b620005d6828285620004fb565b600060209050601f8311600181146200060e5760008415620005f9578287015190505b62000605858262000578565b86555062000675565b601f1984166200061e86620003c4565b60005b82811015620006485784890151825560018201915060208501945060208101905062000621565b8683101562000668578489015162000664601f89168262000558565b8355505b6001600288020188555050505b505050505050565b620006888162000280565b82525050565b6000602082019050620006a560008301846200067d565b92915050565b6103c680620006bb6000396000f3fe608060405234801561001057600080fd5b506004361061002b5760003560e01c80633bc5de3014610030575b600080fd5b610038610050565b6040516100479392919061027f565b60405180910390f35b6060806000600360009054906101000a900460ff166100a4576040517f08c379a000000000000000000000000000000000000000000000000000000000815260040161009b90610310565b60405180910390fd5b6000800160006001016000600201548280546100bf9061035f565b80601f01602080910402602001604051908101604052809291908181526020018280546100eb9061035f565b80156101385780601f1061010d57610100808354040283529160200191610138565b820191906000526020600020905b81548152906001019060200180831161011b57829003601f168201915b5050505050925081805461014b9061035f565b80601f01602080910402602001604051908101604052809291908181526020018280546101779061035f565b80156101c45780601f10610199576101008083540402835291602001916101c4565b820191906000526020600020905b8154815290600101906020018083116101a757829003601f168201915b50505050509150925092509250909192565b600081519050919050565b600082825260208201905092915050565b60005b838110156102105780820151818401526020810190506101f5565b60008484015250505050565b6000601f19601f8301169050919050565b6000610238826101d6565b61024281856101e1565b93506102528185602086016101f2565b61025b8161021c565b840191505092915050565b6000819050919050565b61027981610266565b82525050565b60006060820190508181036000830152610299818661022d565b905081810360208301526102ad818561022d565b90506102bc6040830184610270565b949350505050565b7f44617461206e6f7420696e697469616c697a6564000000000000000000000000600082015250565b60006102fa6014836101e1565b9150610305826102c4565b602082019050919050565b60006020820190508181036000830152610329816102ed565b9050919050565b7f4e487b7100000000000000000000000000000000000000000000000000000000600052602260045260246000fd5b6000600282049050600182168061037757607f821691505b60208210810361038a57610389610330565b5b5091905056fea2646970667358221220d8ecfea0b8bec6c3dfccc4a1bd32a0515534f1d1009cdaed8394e59f32febf4764736f6c63430008180033","opcodes":"PUSH1 0x80 PUSH1 0x40 MSTORE CALLVALUE DUP1 ISZERO PUSH3 0x11 JUMPI PUSH1 0x0 DUP1 REVERT JUMPDEST POP PUSH1 0x40 MLOAD PUSH3 0xA81 CODESIZE SUB DUP1 PUSH3 0xA81 DUP4 CODECOPY DUP2 DUP2 ADD PUSH1 0x40 MSTORE DUP2 ADD SWAP1 PUSH3 0x37 SWAP2 SWAP1 PUSH3 0x2BB JUMP JUMPDEST PUSH1 0x40 MLOAD DUP1 PUSH1 0x60 ADD PUSH1 0x40 MSTORE DUP1 DUP5 DUP2 MSTORE PUSH1 0x20 ADD DUP4 DUP2 MSTORE PUSH1 0x20 ADD DUP3 DUP2 MSTORE POP PUSH1 0x0 DUP1 DUP3 ADD MLOAD DUP2 PUSH1 0x0 ADD SWAP1 DUP2 PUSH3 0x6A SWAP2 SWAP1 PUSH3 0x596 JUMP JUMPDEST POP PUSH1 0x20 DUP3 ADD MLOAD DUP2 PUSH1 0x1 ADD SWAP1 DUP2 PUSH3 0x82 SWAP2 SWAP1 PUSH3 0x596 JUMP JUMPDEST POP PUSH1 0x40 DUP3 ADD MLOAD DUP2 PUSH1 0x2 ADD SSTORE SWAP1 POP POP PUSH1 0x1 PUSH1 0x3 PUSH1 0x0 PUSH2 0x100 EXP DUP2 SLOAD DUP2 PUSH1 0xFF MUL NOT AND SWAP1 DUP4 ISZERO ISZERO MUL OR SWAP1 SSTORE POP PUSH32 0x9455957C3B77D1D4ED071E2B469DD77E37FC5DFD3B4D44DC8A997CC97C7B3D49 TIMESTAMP PUSH1 0x40 MLOAD PUSH3 0xDC SWAP2 SWAP1 PUSH3 0x68E JUMP JUMPDEST PUSH1 0x40 MLOAD DUP1 SWAP2 SUB SWAP1 LOG1 POP POP POP PUSH3 0x6AB JUMP JUMPDEST PUSH1 0x0 PUSH1 0x40 MLOAD SWAP1 POP SWAP1 JUMP JUMPDEST PUSH1 0x0 DUP1 REVERT JUMPDEST PUSH1 0x0 DUP1 REVERT JUMPDEST PUSH1 0x0 DUP1 REVERT JUMPDEST PUSH1 0x0 DUP1 REVERT JUMPDEST PUSH1 0x0 PUSH1 0x1F NOT PUSH1 0x1F DUP4 ADD AND SWAP1 POP SWAP2 SWAP1 POP JUMP JUMPDEST PUSH32 0x4E487B7100000000000000000000000000000000000000000000000000000000 PUSH1 0x0 MSTORE PUSH1 0x41 PUSH1 0x4 MSTORE PUSH1 0x24 PUSH1 0x0 REVERT JUMPDEST PUSH3 0x156 DUP3 PUSH3 0x10B JUMP JUMPDEST DUP2 ADD DUP2 DUP2 LT PUSH8 0xFFFFFFFFFFFFFFFF DUP3 GT OR ISZERO PUSH3 0x178 JUMPI PUSH3 0x177 PUSH3 0x11C JUMP JUMPDEST JUMPDEST DUP1 PUSH1 0x40 MSTORE POP POP POP JUMP JUMPDEST PUSH1 0x0 PUSH3 0x18D PUSH3 0xED JUMP JUMPDEST SWAP1 POP PUSH3 0x19B DUP3 DUP3 PUSH3 0x14B JUMP JUMPDEST SWAP2 SWAP1 POP JUMP JUMPDEST PUSH1 0x0 PUSH8 0xFFFFFFFFFFFFFFFF DUP3 GT ISZERO PUSH3 0x1BE JUMPI PUSH3 0x1BD PUSH3 0x11C JUMP JUMPDEST JUMPDEST PUSH3 0x1C9 DUP3 PUSH3 0x10B JUMP JUMPDEST SWAP1 POP PUSH1 0x20 DUP2 ADD SWAP1 POP SWAP2 SWAP1 POP JUMP JUMPDEST PUSH1 0x0 JUMPDEST DUP4 DUP2 LT ISZERO PUSH3 0x1F6 JUMPI DUP1 DUP3 ADD MLOAD DUP2 DUP5 ADD MSTORE PUSH1 0x20 DUP2 ADD SWAP1 POP PUSH3 0x1D9 JUMP JUMPDEST PUSH1 0x0 DUP5 DUP5 ADD MSTORE POP POP POP POP JUMP JUMPDEST PUSH1 0x0 PUSH3 0x219 PUSH3 0x213 DUP5 PUSH3 0x1A0 JUMP JUMPDEST PUSH3 0x181 JUMP JUMPDEST SWAP1 POP DUP3 DUP2 MSTORE PUSH1 0x20 DUP2 ADD DUP5 DUP5 DUP5 ADD GT ISZERO PUSH3 0x238 JUMPI PUSH3 0x237 PUSH3 0x106 JUMP JUMPDEST JUMPDEST PUSH3 0x245 DUP5 DUP3 DUP6 PUSH3 0x1D6 JUMP JUMPDEST POP SWAP4 SWAP3 POP POP POP JUMP JUMPDEST PUSH1 0x0 DUP3 PUSH1 0x1F DUP4 ADD SLT PUSH3 0x265 JUMPI PUSH3 0x264 PUSH3 0x101 JUMP JUMPDEST JUMPDEST DUP2 MLOAD PUSH3 0x277 DUP5 DUP3 PUSH1 0x20 DUP7 ADD PUSH3 0x202 JUMP JUMPDEST SWAP2 POP POP SWAP3 SWAP2 POP POP JUMP JUMPDEST PUSH1 0x0 DUP2 SWAP1 POP SWAP2 SWAP1 POP JUMP JUMPDEST PUSH3 0x295 DUP2 PUSH3 0x280 JUMP JUMPDEST DUP2 EQ PUSH3 0x2A1 JUMPI PUSH1 0x0 DUP1 REVERT JUMPDEST POP JUMP JUMPDEST PUSH1 0x0 DUP2 MLOAD SWAP1 POP PUSH3 0x2B5 DUP2 PUSH3 0x28A JUMP JUMPDEST SWAP3 SWAP2 POP POP JUMP JUMPDEST PUSH1 0x0 DUP1 PUSH1 0x0 PUSH1 0x60 DUP5 DUP7 SUB SLT ISZERO PUSH3 0x2D7 JUMPI PUSH3 0x2D6 PUSH3 0xF7 JUMP JUMPDEST JUMPDEST PUSH1 0x0 DUP5 ADD MLOAD PUSH8 0xFFFFFFFFFFFFFFFF DUP2 GT ISZERO PUSH3 0x2F8 JUMPI PUSH3 0x2F7 PUSH3 0xFC JUMP JUMPDEST JUMPDEST PUSH3 0x306 DUP7 DUP3 DUP8 ADD PUSH3 0x24D JUMP JUMPDEST SWAP4 POP POP PUSH1 0x20 DUP5 ADD MLOAD PUSH8 0xFFFFFFFFFFFFFFFF DUP2 GT ISZERO PUSH3 0x32A JUMPI PUSH3 0x329 PUSH3 0xFC JUMP JUMPDEST JUMPDEST PUSH3 0x338 DUP7 DUP3 DUP8 ADD PUSH3 0x24D JUMP JUMPDEST SWAP3 POP POP PUSH1 0x40 PUSH3 0x34B DUP7 DUP3 DUP8 ADD PUSH3 0x2A4 JUMP JUMPDEST SWAP2 POP POP SWAP3 POP SWAP3 POP SWAP3 JUMP JUMPDEST PUSH1 0x0 DUP2 MLOAD SWAP1 POP SWAP2 SWAP1 POP JUMP JUMPDEST PUSH32 0x4E487B7100000000000000000000000000000000000000000000000000000000 PUSH1 0x0 MSTORE PUSH1 0x22 PUSH1 0x4 MSTORE PUSH1 0x24 PUSH1 0x0 REVERT JUMPDEST PUSH1 0x0 PUSH1 0x2 DUP3 DIV SWAP1 POP PUSH1 0x1 DUP3 AND DUP1 PUSH3 0x3A8 JUMPI PUSH1 0x7F DUP3 AND SWAP2 POP JUMPDEST PUSH1 0x20 DUP3 LT DUP2 SUB PUSH3 0x3BE JUMPI PUSH3 0x3BD PUSH3 0x360 JUMP JUMPDEST JUMPDEST POP SWAP2 SWAP1 POP JUMP JUMPDEST PUSH1 0x0 DUP2 SWAP1 POP DUP2 PUSH1 0x0 MSTORE PUSH1 0x20 PUSH1 0x0 KECCAK256 SWAP1 POP SWAP2 SWAP1 POP JUMP JUMPDEST PUSH1 0x0 PUSH1 0x20 PUSH1 0x1F DUP4 ADD DIV SWAP1 POP SWAP2 SWAP1 POP JUMP JUMPDEST PUSH1 0x0 DUP3 DUP3 SHL SWAP1 POP SWAP3 SWAP2 POP POP JUMP JUMPDEST PUSH1 0x0 PUSH1 0x8 DUP4 MUL PUSH3 0x428 PUSH32 0xFFFFFFFFFFFFFFFFFFFFFFFFFFFFFFFFFFFFFFFFFFFFFFFFFFFFFFFFFFFFFFFF DUP3 PUSH3 0x3E9 JUMP JUMPDEST PUSH3 0x434 DUP7 DUP4 PUSH3 0x3E9 JUMP JUMPDEST SWAP6 POP DUP1 NOT DUP5 AND SWAP4 POP DUP1 DUP7 AND DUP5 OR SWAP3 POP POP POP SWAP4 SWAP3 POP POP POP JUMP JUMPDEST PUSH1 0x0 DUP2 SWAP1 POP SWAP2 SWAP1 POP JUMP JUMPDEST PUSH1 0x0 PUSH3 0x477 PUSH3 0x471 PUSH3 0x46B DUP5 PUSH3 0x280 JUMP JUMPDEST PUSH3 0x44C JUMP JUMPDEST PUSH3 0x280 JUMP JUMPDEST SWAP1 POP SWAP2 SWAP1 POP JUMP JUMPDEST PUSH1 0x0 DUP2 SWAP1 POP SWAP2 SWAP1 POP JUMP JUMPDEST PUSH3 0x493 DUP4 PUSH3 0x456 JUMP JUMPDEST PUSH3 0x4AB PUSH3 0x4A2 DUP3 PUSH3 0x47E JUMP JUMPDEST DUP5 DUP5 SLOAD PUSH3 0x3F6 JUMP JUMPDEST DUP3 SSTORE POP POP POP POP JUMP JUMPDEST PUSH1 0x0 SWAP1 JUMP JUMPDEST PUSH3 0x4C2 PUSH3 0x4B3 JUMP JUMPDEST PUSH3 0x4CF DUP2 DUP5 DUP5 PUSH3 0x488 JUMP JUMPDEST POP POP POP JUMP JUMPDEST JUMPDEST DUP2 DUP2 LT ISZERO PUSH3 0x4F7 JUMPI PUSH3 0x4EB PUSH1 0x0 DUP3 PUSH3 0x4B8 JUMP JUMPDEST PUSH1 0x1 DUP2 ADD SWAP1 POP PUSH3 0x4D5 JUMP JUMPDEST POP POP JUMP JUMPDEST PUSH1 0x1F DUP3 GT ISZERO PUSH3 0x546 JUMPI PUSH3 0x510 DUP2 PUSH3 0x3C4 JUMP JUMPDEST PUSH3 0x51B DUP5 PUSH3 0x3D9 JUMP JUMPDEST DUP2 ADD PUSH1 0x20 DUP6 LT ISZERO PUSH3 0x52B JUMPI DUP2 SWAP1 POP JUMPDEST PUSH3 0x543 PUSH3 0x53A DUP6 PUSH3 0x3D9 JUMP JUMPDEST DUP4 ADD DUP3 PUSH3 0x4D4 JUMP JUMPDEST POP POP JUMPDEST POP POP POP JUMP JUMPDEST PUSH1 0x0 DUP3 DUP3 SHR SWAP1 POP SWAP3 SWAP2 POP POP JUMP JUMPDEST PUSH1 0x0 PUSH3 0x56B PUSH1 0x0 NOT DUP5 PUSH1 0x8 MUL PUSH3 0x54B JUMP JUMPDEST NOT DUP1 DUP4 AND SWAP2 POP POP SWAP3 SWAP2 POP POP JUMP JUMPDEST PUSH1 0x0 PUSH3 0x586 DUP4 DUP4 PUSH3 0x558 JUMP JUMPDEST SWAP2 POP DUP3 PUSH1 0x2 MUL DUP3 OR SWAP1 POP SWAP3 SWAP2 POP POP JUMP JUMPDEST PUSH3 0x5A1 DUP3 PUSH3 0x355 JUMP JUMPDEST PUSH8 0xFFFFFFFFFFFFFFFF DUP2 GT ISZERO PUSH3 0x5BD JUMPI PUSH3 0x5BC PUSH3 0x11C JUMP JUMPDEST JUMPDEST PUSH3 0x5C9 DUP3 SLOAD PUSH3 0x38F JUMP JUMPDEST PUSH3 0x5D6 DUP3 DUP3 DUP6 PUSH3 0x4FB JUMP JUMPDEST PUSH1 0x0 PUSH1 0x20 SWAP1 POP PUSH1 0x1F DUP4 GT PUSH1 0x1 DUP2 EQ PUSH3 0x60E JUMPI PUSH1 0x0 DUP5 ISZERO PUSH3 0x5F9 JUMPI DUP3 DUP8 ADD MLOAD SWAP1 POP JUMPDEST PUSH3 0x605 DUP6 DUP3 PUSH3 0x578 JUMP JUMPDEST DUP7 SSTORE POP PUSH3 0x675 JUMP JUMPDEST PUSH1 0x1F NOT DUP5 AND PUSH3 0x61E DUP7 PUSH3 0x3C4 JUMP JUMPDEST PUSH1 0x0 JUMPDEST DUP3 DUP2 LT ISZERO PUSH3 0x648 JUMPI DUP5 DUP10 ADD MLOAD DUP3 SSTORE PUSH1 0x1 DUP3 ADD SWAP2 POP PUSH1 0x20 DUP6 ADD SWAP5 POP PUSH1 0x20 DUP2 ADD SWAP1 POP PUSH3 0x621 JUMP JUMPDEST DUP7 DUP4 LT ISZERO PUSH3 0x668 JUMPI DUP5 DUP10 ADD MLOAD PUSH3 0x664 PUSH1 0x1F DUP10 AND DUP3 PUSH3 0x558 JUMP JUMPDEST DUP4 SSTORE POP JUMPDEST PUSH1 0x1 PUSH1 0x2 DUP9 MUL ADD DUP9 SSTORE POP POP POP JUMPDEST POP POP POP POP POP POP JUMP JUMPDEST PUSH3 0x688 DUP2 PUSH3 0x280 JUMP JUMPDEST DUP3 MSTORE POP POP JUMP JUMPDEST PUSH1 0x0 PUSH1 0x20 DUP3 ADD SWAP1 POP PUSH3 0x6A5 PUSH1 0x0 DUP4 ADD DUP5 PUSH3 0x67D JUMP JUMPDEST SWAP3 SWAP2 POP POP JUMP JUMPDEST PUSH2 0x3C6 DUP1 PUSH3 0x6BB PUSH1 0x0 CODECOPY PUSH1 0x0 RETURN INVALID PUSH1 0x80 PUSH1 0x40 MSTORE CALLVALUE DUP1 ISZERO PUSH2 0x10 JUMPI PUSH1 0x0 DUP1 REVERT JUMPDEST POP PUSH1 0x4 CALLDATASIZE LT PUSH2 0x2B JUMPI PUSH1 0x0 CALLDATALOAD PUSH1 0xE0 SHR DUP1 PUSH4 0x3BC5DE30 EQ PUSH2 0x30 JUMPI JUMPDEST PUSH1 0x0 DUP1 REVERT JUMPDEST PUSH2 0x38 PUSH2 0x50 JUMP JUMPDEST PUSH1 0x40 MLOAD PUSH2 0x47 SWAP4 SWAP3 SWAP2 SWAP1 PUSH2 0x27F JUMP JUMPDEST PUSH1 0x40 MLOAD DUP1 SWAP2 SUB SWAP1 RETURN JUMPDEST PUSH1 0x60 DUP1 PUSH1 0x0 PUSH1 0x3 PUSH1 0x0 SWAP1 SLOAD SWAP1 PUSH2 0x100 EXP SWAP1 DIV PUSH1 0xFF AND PUSH2 0xA4 JUMPI PUSH1 0x40 MLOAD PUSH32 0x8C379A000000000000000000000000000000000000000000000000000000000 DUP2 MSTORE PUSH1 0x4 ADD PUSH2 0x9B SWAP1 PUSH2 0x310 JUMP JUMPDEST PUSH1 0x40 MLOAD DUP1 SWAP2 SUB SWAP1 REVERT JUMPDEST PUSH1 0x0 DUP1 ADD PUSH1 0x0 PUSH1 0x1 ADD PUSH1 0x0 PUSH1 0x2 ADD SLOAD DUP3 DUP1 SLOAD PUSH2 0xBF SWAP1 PUSH2 0x35F JUMP JUMPDEST DUP1 PUSH1 0x1F ADD PUSH1 0x20 DUP1 SWAP2 DIV MUL PUSH1 0x20 ADD PUSH1 0x40 MLOAD SWAP1 DUP2 ADD PUSH1 0x40 MSTORE DUP1 SWAP3 SWAP2 SWAP1 DUP2 DUP2 MSTORE PUSH1 0x20 ADD DUP3 DUP1 SLOAD PUSH2 0xEB SWAP1 PUSH2 0x35F JUMP JUMPDEST DUP1 ISZERO PUSH2 0x138 JUMPI DUP1 PUSH1 0x1F LT PUSH2 0x10D JUMPI PUSH2 0x100 DUP1 DUP4 SLOAD DIV MUL DUP4 MSTORE SWAP2 PUSH1 0x20 ADD SWAP2 PUSH2 0x138 JUMP JUMPDEST DUP3 ADD SWAP2 SWAP1 PUSH1 0x0 MSTORE PUSH1 0x20 PUSH1 0x0 KECCAK256 SWAP1 JUMPDEST DUP2 SLOAD DUP2 MSTORE SWAP1 PUSH1 0x1 ADD SWAP1 PUSH1 0x20 ADD DUP1 DUP4 GT PUSH2 0x11B JUMPI DUP3 SWAP1 SUB PUSH1 0x1F AND DUP3 ADD SWAP2 JUMPDEST POP POP POP POP POP SWAP3 POP DUP2 DUP1 SLOAD PUSH2 0x14B SWAP1 PUSH2 0x35F JUMP JUMPDEST DUP1 PUSH1 0x1F ADD PUSH1 0x20 DUP1 SWAP2 DIV MUL PUSH1 0x20 ADD PUSH1 0x40 MLOAD SWAP1 DUP2 ADD PUSH1 0x40 MSTORE DUP1 SWAP3 SWAP2 SWAP1 DUP2 DUP2 MSTORE PUSH1 0x20 ADD DUP3 DUP1 SLOAD PUSH2 0x177 SWAP1 PUSH2 0x35F JUMP JUMPDEST DUP1 ISZERO PUSH2 0x1C4 JUMPI DUP1 PUSH1 0x1F LT PUSH2 0x199 JUMPI PUSH2 0x100 DUP1 DUP4 SLOAD DIV MUL DUP4 MSTORE SWAP2 PUSH1 0x20 ADD SWAP2 PUSH2 0x1C4 JUMP JUMPDEST DUP3 ADD SWAP2 SWAP1 PUSH1 0x0 MSTORE PUSH1 0x20 PUSH1 0x0 KECCAK256 SWAP1 JUMPDEST DUP2 SLOAD DUP2 MSTORE SWAP1 PUSH1 0x1 ADD SWAP1 PUSH1 0x20 ADD DUP1 DUP4 GT PUSH2 0x1A7 JUMPI DUP3 SWAP1 SUB PUSH1 0x1F AND DUP3 ADD SWAP2 JUMPDEST POP POP POP POP POP SWAP2 POP SWAP3 POP SWAP3 POP SWAP3 POP SWAP1 SWAP2 SWAP3 JUMP JUMPDEST PUSH1 0x0 DUP2 MLOAD SWAP1 POP SWAP2 SWAP1 POP JUMP JUMPDEST PUSH1 0x0 DUP3 DUP3 MSTORE PUSH1 0x20 DUP3 ADD SWAP1 POP SWAP3 SWAP2 POP POP JUMP JUMPDEST PUSH1 0x0 JUMPDEST DUP4 DUP2 LT ISZERO PUSH2 0x210 JUMPI DUP1 DUP3 ADD MLOAD DUP2 DUP5 ADD MSTORE PUSH1 0x20 DUP2 ADD SWAP1 POP PUSH2 0x1F5 JUMP JUMPDEST PUSH1 0x0 DUP5 DUP5 ADD MSTORE POP POP POP POP JUMP JUMPDEST PUSH1 0x0 PUSH1 0x1F NOT PUSH1 0x1F DUP4 ADD AND SWAP1 POP SWAP2 SWAP1 POP JUMP JUMPDEST PUSH1 0x0 PUSH2 0x238 DUP3 PUSH2 0x1D6 JUMP JUMPDEST PUSH2 0x242 DUP2 DUP6 PUSH2 0x1E1 JUMP JUMPDEST SWAP4 POP PUSH2 0x252 DUP2 DUP6 PUSH1 0x20 DUP7 ADD PUSH2 0x1F2 JUMP JUMPDEST PUSH2 0x25B DUP2 PUSH2 0x21C JUMP JUMPDEST DUP5 ADD SWAP2 POP POP SWAP3 SWAP2 POP POP JUMP JUMPDEST PUSH1 0x0 DUP2 SWAP1 POP SWAP2 SWAP1 POP JUMP JUMPDEST PUSH2 0x279 DUP2 PUSH2 0x266 JUMP JUMPDEST DUP3 MSTORE POP POP JUMP JUMPDEST PUSH1 0x0 PUSH1 0x60 DUP3 ADD SWAP1 POP DUP2 DUP2 SUB PUSH1 0x0 DUP4 ADD MSTORE PUSH2 0x299 DUP2 DUP7 PUSH2 0x22D JUMP JUMPDEST SWAP1 POP DUP2 DUP2 SUB PUSH1 0x20 DUP4 ADD MSTORE PUSH2 0x2AD DUP2 DUP6 PUSH2 0x22D JUMP JUMPDEST SWAP1 POP PUSH2 0x2BC PUSH1 0x40 DUP4 ADD DUP5 PUSH2 0x270 JUMP JUMPDEST SWAP5 SWAP4 POP POP POP POP JUMP JUMPDEST PUSH32 0x44617461206E6F7420696E697469616C697A6564000000000000000000000000 PUSH1 0x0 DUP3 ADD MSTORE POP JUMP JUMPDEST PUSH1 0x0 PUSH2 0x2FA PUSH1 0x14 DUP4 PUSH2 0x1E1 JUMP JUMPDEST SWAP2 POP PUSH2 0x305 DUP3 PUSH2 0x2C4 JUMP JUMPDEST PUSH1 0x20 DUP3 ADD SWAP1 POP SWAP2 SWAP1 POP JUMP JUMPDEST PUSH1 0x0 PUSH1 0x20 DUP3 ADD SWAP1 POP DUP2 DUP2 SUB PUSH1 0x0 DUP4 ADD MSTORE PUSH2 0x329 DUP2 PUSH2 0x2ED JUMP JUMPDEST SWAP1 POP SWAP2 SWAP1 POP JUMP JUMPDEST PUSH32 0x4E487B7100000000000000000000000000000000000000000000000000000000 PUSH1 0x0 MSTORE PUSH1 0x22 PUSH1 0x4 MSTORE PUSH1 0x24 PUSH1 0x0 REVERT JUMPDEST PUSH1 0x0 PUSH1 0x2 DUP3 DIV SWAP1 POP PUSH1 0x1 DUP3 AND DUP1 PUSH2 0x377 JUMPI PUSH1 0x7F DUP3 AND SWAP2 POP JUMPDEST PUSH1 0x20 DUP3 LT DUP2 SUB PUSH2 0x38A JUMPI PUSH2 0x389 PUSH2 0x330 JUMP JUMPDEST JUMPDEST POP SWAP2 SWAP1 POP JUMP INVALID LOG2 PUSH5 0x6970667358 0x22 SLT KECCAK256 0xD8 0xEC INVALID LOG0 0xB8 0xBE 0xC6 0xC3 0xDF 0xCC 0xC4 LOG1 0xBD ORIGIN LOG0 MLOAD SSTORE CALLVALUE CALL 0xD1 STOP SWAP13 0xDA 0xED DUP4 SWAP5 0xE5 SWAP16 ORIGIN INVALID 0xBF SELFBALANCE PUSH5 0x736F6C6343 STOP ADDMOD XOR STOP CALLER "},"methodIdentifiers":{"getData()":"3bc5de30"}}}}}